:100000000C946F040C9497040C9497040C9497042C
:100010000C9497040C9497040C9497040C949704F4
:100020000C9497040C9497040C94F50A0C94640BAC
:100030000C9497040C9497040C9497040C949704D4
:100040000C9497040C9497040C9497040C949704C4
:100050000C9497040C9497040C9497040C94960DAC
:100060000C9497040C9497040C9497040C949704A4
:100070000C9497040C9497040C9497040C94970494
:100080000C94E00D0C9497040C9497040C94970432
:100090000C9497040C9497040C9497040C94970474
:1000A0000C9497040C9497040C949704000000009F
:1000B000003E5B4F5B3E3E6B4F6B3E1C3E7C3E1CEE
:1000C000183C7E3C181C577D571C1C5E7F5E1C0034
:1000D000183C1800FFE7C3E7FF0018241800FFE7EB
:1000E000DBE7FF30483A060E2629792926407F05AE
:1000F0000507407F05253F5A3CE73C5A7F3E1C1CC4
:1001000008081C1C3E7F14227F22145F5F005F5F83
:1001100006097F017F006689956A6060606060946F
:10012000A2FFA29408047E040810207E2010080874
:100130002A1C08081C2A08081E101010100C1E0C7F
:100140001E0C30383E3830060E3E0E060000000011
:100150000000005F00000007000700147F147F14F8
:10016000242A7F2A1223130864623649562050003D
:1001700008070300001C2241000041221C002A1C29
:100180007F1C2A08083E0808008070300008080814
:100190000808000060600020100804023E51494534
:1001A0003E00427F400072494949462141494D3352
:1001B0001814127F1027454545393C4A49493141B9
:1001C000211109073649494936464949291E000087
:1001D00014000000403400000008142241141414DC
:1001E0001414004122140802015909063E415D59C8
:1001F0004E7C1211127C7F494949363E41414122D1
:100200007F4141413E7F494949417F090909013EFA
:10021000414151737F0808087F00417F4100204021
:10022000413F017F081422417F404040407F021C33
:10023000027F7F0408107F3E4141413E7F0909094A
:10024000063E4151215E7F09192946264949493216
:1002500003017F01033F4040403F1F2040201F3FDC
:100260004038403F63140814630304780403615961
:10027000494D43007F4141410204081020004141A3
:10028000417F04020102044040404040000307084F
:100290000020545478407F2844443838444444284B
:1002A000384444287F385454541800087E090218F2
:1002B000A4A49C787F0804047800447D400020407A
:1002C000403D007F1028440000417F40007C0478BE
:1002D00004787C080404783844444438FC18242406
:1002E0001818242418FC7C08040408485454542486
:1002F00004043F44243C4040207C1C2040201C3C03
:100300004030403C44281028444C9090907C4464F9
:10031000544C44000836410000007700000041368C
:10032000080002010204023C2623263C1EA1A16112
:10033000123A4040207A3854545559215555794144
:100340002154547841215554784020545579400C1B
:100350001E527212395555555939545454593955FC
:100360005454580000457C410002457D420001453F
:100370007C40F0292429F0F0282528F07C545545AC
:10038000002054547C547C0A097F4932494949323F
:100390003248484832324A4848303A4141217A3A54
:1003A00042402078009DA0A07D39444444393D401E
:1003B00040403D3C24FF2424487E4943662B2FFCCB
:1003C0002F2BFF0929F620C0887E09032054547979
:1003D000410000447D413048484A32384040227A4A
:1003E000007A0A0A727D0D19317D2629292F2826C7
:1003F0002929292630484D402038080808080808CF
:100400000808382F10C8ACBA2F102834FA00007B27
:10041000000008142A142222142A1408950022002D
:1004200095AA005500AAAA55AA55AA000000FF00E7
:10043000101010FF00141414FF001010FF00FF1024
:1004400010F010F0141414FC001414F700FF000056
:10045000FF00FF1414F404FC141417101F10101FD5
:10046000101F1414141F00101010F0000000001FC3
:10047000101010101F10101010F010000000FF10CE
:100480001010101010101010FF10000000FF1400CA
:1004900000FF00FF00001F10170000FC04F41414FC
:1004A0001710171414F404F40000FF00F7141414C8
:1004B00014141414F700F7141414171410101F1048
:1004C0001F141414F4141010F010F000001F101F6B
:1004D0000000001F14000000FC140000F010F010D9
:1004E00010FF10FF141414FF141010101F00000050
:1004F00000F010FFFFFFFFFFF0F0F0F0F0FFFFFF54
:100500000000000000FFFF0F0F0F0F0F38444438AA
:10051000447C2A2A3E147E02020606027E027E02E5
:1005200063554941633844443C04407E201E200604
:10053000027E020299A5E7A5991C2A492A1C4C7241
:1005400001724C304A4D4D303048784830BC625AC8
:10055000463D3E494949007E0101017E2A2A2A2A58
:100560002A44445F444440514A444040444A514034
:100570000000FF0103E080FF000008086B6B0836F5
:1005800012362436060F090F060000181800000066
:100590001010003040FF0101001F01011E00191D55
:1005A0001712003C3C3C3C0000000000F0F89C8E20
:1005B0008783878E9CF8F00000FEFF03030303038C
:1005C000070EFCF80000FEFF0303030303070EFC05
:1005D000F80000FFFF00000000000000FFFF000027
:1005E000FEFF8383838383C7EE7C380000F8FC0E14
:1005F00007030303070EFCF800003F7FE0C0808084
:10060000C0E07F3FFFFF01010101010101FFFF0089
:1006100000FFFF0C0C0C0C1C3E77E3C100007FFFB9
:10062000C0C0C0C0C0E0703F1F00001F3F70E0C0EE
:10063000C0C0E0703F1F00007FFFC1C1C1C1C1E366
:10064000773E1C00001F3F70E0C0C0C0E0703F1F3D
:10065000000000000001FFFF01000000D5F08D1434
:10066000A1C881CFD9F1AF200079FFFF39C8691D3A
:10067000F6DE7B5ED665DCF29AFF369A76F4E831D8
:10068000BF513A4F4EFF43477D97599732183DEC83
:10069000234F79C30FE0C49443FE4397D318665A9F
:1006A0002EFC352C683872E2BF7E61AC4B6563600E
:1006B000EF437E650FFF71F450C08D1CBCA81B2E4C
:1006C0007C3E97C3F82FA5F4E463B298BEEAE1300C
:1006D000FED33CFE15027FB77F76E0C8BF41CB85D5
:1006E0007851FEEBC169C816C2BF3B16EEDE321D63
:1006F0007E880B97EC1B67FE6D0D79CB6D1DF66147
:10070000EEC308253D7A753611E4DF117B30996C14
:100710008E2326C365D0A5EA12C95E87231BF22F5C
:10072000CAD3DC39C3CF544E1E57FF7DF131AED44E
:100730001DF80CC7F19C8B72E3EE953F37F298F3EE
:100740001A8724A323CD4A72502FC18BE4B0280B03
:10075000F89BF36339F452C6BAACCBBA8C5B8F7C8E
:10076000AB7A78C1E73D2237E4C4E0CEE06D6E3D60
:10077000AD53610E3A44006C5B9984279EA27BEFD7
:10078000C33AE533CCEC77DC181D72E2A049753131
:10079000BD7ADBE31F414E73C0895FFD276320E014
:1007A00081012CC7B429A4A3C38E7577D08110E131
:1007B00087F592CD016EECCAC505742570648683F9
:1007C0004EE10E16C9EAB0FE8BE036C7E73DEDF10B
:1007D000D70375BF5FE94B9EF1759EF167E0204E30
:1007E000C213600200E1E89DF829BEC06FE1D7F1B5
:1007F0001DE5394F01B900FFFA79EE3F2BEE9CB8A9
:100800007167F247E2C617B9217F4A4EDCF918B288
:10081000599C38515E12E047F0057E1FBF93C1A27C
:10082000BC43FE69F2A7E4119B274C3ECAEFE1C42A
:100830004F60F86F97DFC9BF46FED5F1983F0907B3
:100840002EFCBB415E301191F08EFA86CD27B93A6D
:1008500079C641F96789FC2A2693237F7DFE0CFC2B
:100860009B66F02F8B3F0C080B0002020200000970
:10087000040000010202000005240010010524010B
:100880000101042402060524060001070581031066
:10089000004009040100020A0000000705020240AE
:1008A0000000070583024000000403090412010050
:1008B00002EF0201404123368000010102030141A1
:1008C000726475696E6F204C4C43004172647569A7
:1008D0006E6F204C656F6E6172646F00740E112430
:1008E0001FBECFEFDAE0DEBFCDBF11E0A0E0B1E088
:1008F000E6EEF7E202C005900D92AE3CB107D9F7E3
:1009000026E0AEECB1E001C01D92A637B207E1F7D8
:1009100014E0CFE6D4E004C02197FE010E94EB135F
:10092000CE36D107C9F70E94A10E0C94F1130C9496
:1009300000008091E0010895E2E1F2E0A0E0B8E07B
:1009400000800EBC8111012C1197A0FDFDCF0192FA
:10095000B9F70DB408952F923F924F925F926F9224
:100960007F928F929F92AF92BF92CF92DF92EF923F
:10097000FF920F931F93CF93DF93CDB7DEB72B97E3
:100980000FB6F894DEBF0FBECDBF2B01FB01349133
:1009900031969490292D2F732F5F422F4695841BFB
:1009A0009109AC01420F511D57FD7CC1E32EEE1C95
:1009B000EE24EE1CEB828824839496FE812C1C018D
:1009C00097FF04C022243324281A390A07E0202282
:1009D0003324AC0197FF02C0495F5F4FBA0143E087
:1009E000759567954A95E1F77A83698397FF0DC0FE
:1009F0002114310451F0615071097A83698388E0D0
:100A000090E0FC01E219F3091F01922F969596954B
:100A10009695277009F09F5F3F7781E0830F282F1D
:100A2000269540E450E06A01C21AD10837E060E13F
:100A300070E020E0B0E0A0E0712C612CE92EF12CF8
:100A4000FF82EE82082F10E0198708874E815F81B0
:100A5000641675060CF026C181E090E09B878A87BA
:100A6000FB0193E0F695E7959A95E1F7E40DF51D06
:100A7000E491F0E0CB018770992702C0F595E795E6
:100A80008A95E2F7AB014F5F5F4FE0FF08C00A8530
:100A90001B850F5F1F4F1B870A87BA01E1CF8A852D
:100AA0009B85019779F5FA0183E0F695E7958A959C
:100AB000E1F7E40DF51D849190E04770552702C0E1
:100AC000959587954A95E2F78170992701966E5F13
:100AD0007F4F50E040E011E0181B1A874817590774
:100AE00008F0DBC05C01A41AB50AE32FF0E0EB804C
:100AF000E110A6C0EA15FB0508F044C04E0F5F1FC9
:100B000030E044C00A851B85015011091D830C8308
:100B100081E090E00C8002C0880F991F0A94E2F7F0
:100B2000019610E000E07801E40EF51EF701F6955D
:100B3000E795F695E795F695E795E40DF51DE491B3
:100B4000AE2EB12CE7E0EE22FF2402C0B594A794AC
:100B5000EA94E2F7A0FE0AC0E1E0F0E0002E02C055
:100B6000EE0FFF1F0A94E2F78E0F9F1F0F5F1F4FBC
:100B7000EC80FD800E151F05B4F20A851B85600F01
:100B8000711FA7CFFA843F0D340FAC01315008F02C
:100B900054C0222309F440C0B980B60C17E01B15DD
:100BA000DCF1F601EA0FFB1FE038F105ACF530E0AF
:100BB0007901022C02C0EE0CFF1C0A94E2F7B7FC8C
:100BC00010C02B2D30E82303F0011124EC0DFD1D86
:100BD000EA0FFB1F8F010E5E1D4FF80120812E29A9
:100BE000208321143104C1F0F7E0BF16A9F00FEF04
:100BF000B01694F0EB2DBB0CFF0B3196F695FE2F43
:100C0000EE27F795E795EC0DFD1DEA0FFB1FEE5E55
:100C1000FD4F20812F29208397FE02C011E08126FD
:100C2000119628853985A217B3072CF03FEF631A78
:100C3000730AB0E0A0E037E020E04F5F5F4F4ECF97
:100C4000EA15FB05E8F43730C9F0882079F007E0B1
:100C500010E00E1B1F0BEE24EA94F12C02C0F59459
:100C6000E7940A95E2F78701202B48CF00E81FEFB1
:100C700002C0169507953A95E2F7F6CF2FEF3ECFD3
:100C8000882029F0E65EFE4FE0812E2B7FCF07E023
:100C900010E00E1B1F0BF801F5CF41E05B81451BF7
:100CA0004B83D4CE2B960FB6F894DEBF0FBECDBFCC
:100CB000DF91CF911F910F91FF90EF90DF90CF9038
:100CC000BF90AF909F908F907F906F905F904F906C
:100CD0003F902F900895FC0180911102882311F11B
:100CE0003FB7F89482E08093E9002091F200822FD0
:100CF00090E01816190614F481E090E0882339F08A
:100D0000289844E6409310024091F100408322234A
:100D100039F02091F200211103C02BE62093E80066
:100D20003FBF08958FEF9FEF08952FB7F89483E0AA
:100D30008093E9009091E800892F807295FF04C0AC
:100D40009091F20080E4891B2FBF089580910802E2
:100D500081110DC082E08093040284E0809305023B
:100D6000109207021092060281E08093080284E04C
:100D700092E00895CF93DF931F92CDB7DEB76983DA
:100D8000DC01ED91FC910280F381E02D41E050E027
:100D9000BE016F5F7F4F09950F90DF91CF9108954E
:100DA00083E08093E9008091F200882319F08AE3C0
:100DB0008093E80008950E94950690E00895CF93EF
:100DC000DF931F92CDB7DEB7FC018485958597FD33
:100DD00008C02FEF3FEF358724870F90DF91CF9129
:100DE0000895CE0101960E946B06019719F489813E
:100DF00090E0F3CF8FEF9FEFF0CF0F931F93CF9340
:100E0000DF931F92CDB7DEB78C01FC0184859585F9
:100E100097FF0BC0CE0101960E946B06019771F4FB
:100E2000898190E0F80195878487F801848595850C
:100E30000F90DF91CF911F910F9108958FEF9FEF4A
:100E4000F1CFFC018485958597FD0BC09FB7F89481
:100E500082E08093E9008091F2009FBF90E00196CC
:100E600008959FB7F89482E08093E9008091F200A2
:100E70009FBF90E008954091FE015091FF012091A5
:100E8000FC013091FD0142175307B4F49091E80042
:100E90009570E1F39091E80092FD19C08093F10004
:100EA0008091FE019091FF0101968F739927892B04
:100EB00019F48EEF8093E8008091FE019091FF017C
:100EC00001969093FF018093FE0181E0089580E0F8
:100ED0000895DF92EF92FF920F931F93CF93DF93CA
:100EE000D82E8A01EB017B01E40EF51ECE15DF053D
:100EF00059F0D7FE12C0FE0184910E943B07219653
:100F00008111F4CF0FEF1FEFC801DF91CF911F9137
:100F10000F91FF90EF90DF9008958881EECF0F93AF
:100F20001F93CF93DF931F92CDB7DEB782E0898303
:100F300042E450E067E678E080E80E9469070E949A
:100F4000A606DC0112960D911C910115110589F080
:100F5000D801ED91FC910280F381E02DBE016F5F1D
:100F60007F4FC801099597FD04C0F80100851185E0
:100F7000ECCF89810F90DF91CF911F910F91089550
:100F8000615030F02091F100FC0120830196F8CFF0
:100F9000289884E6809310020895AF92BF92CF9272
:100FA000DF92EF92FF920F931F93CF93DF936C0129
:100FB0007B018B01040F151FEB015E01AE18BF080A
:100FC000C017D10759F06991D601ED91FC910190BC
:100FD000F081E02DC6010995892B79F7C501DF91D4
:100FE000CF911F910F91FF90EF90DF90CF90BF9026
:100FF000AF9008953FB7F8948091DC019091DD01A6
:10100000A091DE01B091DF0126B5A89B05C02F3F5E
:1010100019F00196A11DB11D3FBFBA2FA92F982F1E
:101020008827BC01CD01620F711D811D911D42E019
:10103000660F771F881F991F4A95D1F708958F92E1
:101040009F92AF92BF92CF92DF92EF92FF926B018D
:101050007C010E94FA074B015C01C114D104E10438
:10106000F104B9F00E94FA07681979098A099B0905
:10107000683E73408105910580F321E0C21AD108D2
:10108000E108F10888EE880E83E0981EA11CB11CCF
:10109000E4CFFF90EF90DF90CF90BF90AF909F9004
:1010A0008F9008958F929F92AF92BF92CF92DF92CE
:1010B000EF92FF920F931F93CF93DF936C017B010D
:1010C0008A0180911201882309F45CC08091110289
:1010D000882309F457C08091030280FF05C08091E6
:1010E000E00082608093E000E801B12C8AEFA82E36
:1010F00093E0892E2AE3922E209711F4BB20D9F198
:101100000E94950681110AC0AA94AA20D9F161E033
:1011100070E080E090E00E941F08EECF8C171D0663
:1011200011F00CF08C2F9FB7F8948092E900209179
:10113000E80025FD02C09FBFDFCF282F30E0C21B93
:10114000D30BF701815020F041914093F100FACF89
:10115000E20EF31EBB2021F09092E800B12CEBCF01
:101160008091E80085FDE7CF9092E800BB24B3941E
:10117000209709F3F3CF5D9884E68093020210165E
:1011800011063CF081E090E0F6019383828310E049
:1011900000E0C801DF91CF911F910F91FF90EF9078
:1011A000DF90CF90BF90AF909F908F900895209147
:1011B000D401E091D201F091D301CF010296909336
:1011C000D3018093D201222319F08591949108953F
:1011D000808191810895CF92DF92EF92FF92CF9319
:1011E000DF930E94D708811520E8920791F480913F
:1011F00071008D7F809371001092910046984798FE
:101200001092E301DF91CF91FF90EF90DF90CF90AC
:10121000089521E02093E301813020E8920751F402
:101220008091D0019091D1019093D3018093D2010C
:101230000E94D70897FD05C02091CF01222309F411
:1012400054C02091CE01211150C021E02093D5013E
:10125000EC01DF77209709F04BC081E08093D60145
:1012600046983FE9C32E3FE0D32EE12CF12CCAEF84
:10127000D0E0E0917006F09171060995811103C0EC
:1012800081E08093D6018091D501882329F0809157
:10129000D601882309F43FC047980E94D7080097D9
:1012A000F1F19C01DE010E94C813DC01CB0129E0B1
:1012B000B595A795979587952A95D1F710929000A7
:1012C0002AE020939100D0929900C09298008093D8
:1012D000D7019093D801A093D901B093DA018091FE
:1012E00071008260809371008DCF1092D501B0CFD4
:1012F0009E0150E040E060E472E48FE090E00E94E4
:10130000871369017A0181E0C81AD108E108F10860
:101310001092D601AECF4699BFCF479ABECF8FEF7E
:101320009FEFDC01CBCF9C01E1E7F0E090819D7F56
:1013300090831092D401E2E6F6E0F093D301E093BB
:10134000D201F093D101E093D001318320837383E4
:10135000628380E090E8958384830C94EB082D9A57
:101360000895BC0190E080E00C941F088FB1809537
:10137000807F669B88601C9B8460089520E191E0DB
:1013800061FD94E060FD990F62FD9295687F269F54
:10139000D0011124A80FAE5EBD4F8C9140FF03C059
:1013A000892B8C93089590958923FBCFEF92FF9220
:1013B0000F931F93CF93DF937C018B01040F111DBB
:1013C000EB0177FF02C0D0E0C0E0C8010134110595
:1013D00014F080E490E0C817D9075CF480E8E816C0
:1013E000F10428F441E0BE01C7010E94BE09219624
:1013F000ECCFDF91CF911F910F91FF90EF90089567
:101400003F924F925F926F927F928F929F92AF9294
:10141000BF92CF92DF92EF92FF920F931F93CF93E1
:10142000DF93C82FD0E0880F41E0480F6AE070E0FA
:101430006C1B7D0B8AE090E00E94D60901E010E071
:101440000C1B1D0B662477246C1A7D0A660C771C16
:10145000912C812CCC24C394D12C2AE0422E512CE7
:101460008C169D0684F517FD06C0219782E0680E54
:10147000711C060D171D8FEF881A980A82E0C80E9E
:10148000D11C0C0D1D1D3C2E330C3394432D7201C9
:10149000EC1AFD0AB701C4010A960E94D60952014E
:1014A000A818B9084C2DB501CE010A960E94D6099C
:1014B000432DB701C5010E94D6094C2DB501C701C6
:1014C0000E94D609CDCFDF91CF911F910F91FF9050
:1014D000EF90DF90CF90BF90AF909F908F907F90D4
:1014E0006F905F904F903F9008958F929F92AF9230
:1014F000BF92CF92DF92EF92FF920F931F93CF9301
:10150000DF936D3089F0C090EE01D090EF016A302A
:10151000D1F41092ED011092EC0188E0C80ED11CBC
:10152000D092EF01C092EE0181E090E0DF91CF9187
:101530001F910F91FF90EF90DF90CF90BF90AF90F1
:101540009F908F9008950091EC011091ED01E5E0DE
:101550006E9FE0011124C455DF4F5801F12CF5E0D6
:10156000E12CFF1629F0CE010196FE01E490EC017A
:10157000912C812CF0E8AF16B10458F4B601680D37
:10158000791D6034710528F44E2D4170C5010E940B
:10159000BE09E6948FEF881A980AE8E08E16910447
:1015A00049F7F394FFEFAF1ABF0A86E0F812D7CFDE
:1015B0000A5F1F4F1093ED010093EC01B5CF80E05F
:1015C0000C949C04089590E080E00895FC01019043
:1015D0000020E9F73197AF01481B590BBC0182E7A6
:1015E00096E00C94CD070C9471131F920F920FB6D6
:1015F0000F9211248F939F938091E1009091E100CD
:10160000937F9093E10083FF0FC01092E90091E077
:101610009093EB001092EC0092E39093ED00109207
:10162000110298E09093F00082FF22C093E0909323
:10163000E9009091F200992319F09AE39093E80061
:1016400090910202992341F090910202915090935F
:101650000202911101C05D9A90911002992341F00C
:1016600090911002915090931002911101C0289A0C
:1016700084FF18C08091E2008E7E81608093E2003A
:101680008091E1008F7E8093E100809103028E7E45
:101690008061809303029F918F910F900FBE0F90F6
:1016A0001F90189580FFF7CF8091E2008E7E8061B9
:1016B0008093E2008091E1008E7E8093E100809132
:1016C00003028E7E8160E5CF1F920F920FB60F92BC
:1016D0001124CF92DF92EF92FF920F931F932F93DB
:1016E0003F934F935F936F937F938F939F93AF93AA
:1016F000BF93EF93FF93CF93DF93CDB7DEB76C9794
:10170000DEBFCDBF1092E9008091E80083FF25C0C5
:1017100068E0CE0145960E94C00782EF8093E80002
:101720008D8987FF39C09091E80090FFFCCF982FFA
:10173000907609F034C19E894F89588D2F89F88C95
:10174000911131C0803861F5809101028093F100E0
:101750001092F1008EEF8093E8006C960FB6F8942B
:10176000DEBF0FBECDBFDF91CF91FF91EF91BF9153
:10177000AF919F918F917F916F915F914F913F9129
:101780002F911F910F91FF90EF90DF90CF900F90CE
:101790000FBE0F901F9018959EEF9093E800C7CF53
:1017A0001092F100D5CF913059F48111D3CF41304F
:1017B000510581F6809101028D7F80930102CACF8D
:1017C000933049F48111C6CF4130510519F680910B
:1017D00001028260F2CF953041F48091E80080FFF1
:1017E000FCCF20682093E300B5CF963009F0A9C064
:1017F0000B8D1C8D22E01092E9001092FF011092D7
:10180000FE01F2122EC01092FD011092FC010E9406
:101810008F071F8299E09983FA8291E09E8390EA74
:1018200098879AEF99872091FE013091FF01275FF9
:101830003F4F3C832B838D831092E9001092FF0170
:101840001092FE011093FD010093FC0149E050E06D
:10185000BE016F5F7F4F80E00E9469070E948F0783
:1018600079CF1093FD010093FC010E94A606DC01D4
:1018700012960D911C910115110509F451C1D80161
:10188000ED91FC910480F581E02DBE016B5E7F4FF0
:10189000C8010995009709F03EC1F801008511853E
:1018A000EACFF3E0FF120EC08F89882309F440C00D
:1018B000823061F440E860E18BEC98E00E94410ED8
:1018C000811148CF81E28093EB0047CF813029F42A
:1018D00040E86BE08FEB98E0F1CF833099F70E94FE
:1018E000A606DC011296ED90FC908E010F5F1F4F53
:1018F0006801E114F10479F0D701ED91FC910680C3
:10190000F781E02DB801C7010995080F111DF701F6
:10191000E084F184EECFD8011C92F6010190002002
:10192000E9F73197BF016C197D0940E0C601C6CFC8
:1019300069EA78E0FB01449150E080E80E94690781
:1019400009CF973009F4BECF983021F481E080931D
:10195000F10000CF993009F0FDCE837009F0B2CFCD
:10196000E4E1F1E081E031E096E32191222371F09E
:101970008093E9003093EB00DF0111972C912093C5
:10198000EC009093ED008F5F873079F78EE78093BE
:10199000EA001092EA008F8980931102DBCE8B8DD2
:1019A0009C8D1092E9001092FF011092FE0190931D
:1019B000FD018093FC01898D811192C08E899D89E2
:1019C000913A49F4813209F07DCF47E050E06BE075
:1019D00071E080E0B3CF913209F074CF833269F4C3
:1019E0008F89988DB0E0A0E0809307019093080163
:1019F000A0930901B0930A01ADCE803269F48091C1
:101A0000E80082FFFCCF67E08BE091E00E94C00716
:101A10008BEF8093E8009ECE823209F09BCE8F89B7
:101A200080931201EEEFFFE7859194918B3F9C4DDF
:101A300051F1E0E0F8E080910B0190910C01A09150
:101A40000D01B0910E01803B9440A105B105F1F468
:101A50008091120180FD1AC0EE3F8AE0F80789F5F7
:101A600087E797E7918380838091600080930002ED
:101A700088E19BE00FB6F894A895809360000FBEB4
:101A80009093600067CEEEEFFAE0D5CF8081918130
:101A90008737974709F05ECEA895809160008861EE
:101AA000809360008091000280936000EE3F2AE006
:101AB000F20789F08091FE0A9091FF0A918380835A
:101AC00049CE808191818737980751F29093FF0A20
:101AD0008093FE0AC5CF1092FF0A1092FE0A3ACEFA
:101AE0000E94A606DC0112960D911C9101151105AC
:101AF00009F4E8CED801ED91FC910190F081E02D40
:101B0000BE016B5E7F4FC8010995811123CEF8019C
:101B100000851185EBCF181619060CF41BCED2CE1A
:101B2000F1E0FF12BECE6DEA78E004CF1F920F9273
:101B30000FB60F9211242F933F938F939F93AF93E0
:101B4000BF938091E6019091E701A091E801B091E7
:101B5000E9013091DB0123E0230F2D3758F5019681
:101B6000A11DB11D2093DB018093E6019093E70155
:101B7000A093E801B093E9018091DC019091DD012F
:101B8000A091DE01B091DF010196A11DB11D8093EE
:101B9000DC019093DD01A093DE01B093DF01BF91E2
:101BA000AF919F918F913F912F910F900FBE0F900A
:101BB0001F90189526E8230F0296A11DB11DD2CFC4
:101BC0001F920F920FB60F9211242F933F934F93B2
:101BD0005F936F937F938F939F93AF93BF93EF9395
:101BE000FF938091D7019091D801A091D901B09134
:101BF000DA01892B8A2B8B2B09F440C08091D60106
:101C000081110BC088B190E4892788B98091D501F2
:101C1000882319F088B1805888B98091D7019091B4
:101C2000D801A091D901B091DA01181619061A0647
:101C30001B069CF48091D7019091D801A091D90105
:101C4000B091DA010197A109B1098093D70190936E
:101C5000D801A093D901B093DA01FF91EF91BF9120
:101C6000AF919F918F917F916F915F914F913F9134
:101C70002F910F900FBE0F901F9018950E94EB08A8
:101C8000ECCFEF92FF920F931F93CF93DF93F82E39
:101C9000192FE62E042F81E0860F880F0E943B0744
:101CA00083E00E943B07CF2DD12FEC0EFD2EF11CBF
:101CB000CE15DF05B9F007FF13C0FE0184910E9425
:101CC0003B07182F80E00E943B078123219681115A
:101CD000EFCFDF91CF911F910F91FF90EF9008957B
:101CE0008881EDCF81E0F5CFE2E1F6E01382128248
:101CF00088EE93E0A0E0B0E084839583A683B78369
:101D000086E291E0918380838FEF9FEF95878487B0
:101D1000E2E7F6E01382128288E391E09183808308
:101D200089E994E0909371068093700680E090E8D2
:101D300090936F0680936E0646983E9A47983F9A16
:101D40000895789484B5826084BD84B5816084BD33
:101D500085B5826085BD85B5816085BD80916E0049
:101D6000816080936E00109281008091810082607A
:101D700080938100809181008160809381008091B7
:101D800080008160809380008091910082608093C8
:101D900091008091910081608093910080919000EA
:101DA0008160809390008091C10084608093C10025
:101DB0008091C10082608093C1008091C1008160E8
:101DC0008093C1008091C30081608093C3008091A3
:101DD000C00082608093C0008091C20081608093C7
:101DE000C20080917A00846080937A0080917A00AA
:101DF000826080937A0080917A00816080937A007B
:101E000080917A00806880937A001092110210927B
:101E10000102109203028091D70081608093D70065
:101E200080EA8093D80089B5806189BD89B58260D8
:101E300089BD09B400FEFDCF61E070E080E090E074
:101E40000E941F088091D8008F7C80618093D80009
:101E50008091E000807F8093E0008091E1008E7EA1
:101E60008093E1008DE08093E200559A209A81EC06
:101E700080937C0085B1806F85B984B1877E84B9F9
:101E800084B1876E84B95E9A5F988AB1806D8AB991
:101E9000769A6E9881B3806F81BB899880B38D707C
:101EA00080BB80E58CBD81E08DBD85E090E00E9427
:101EB000B1095F9A85E090E00E94B1095E985C9854
:101EC000ECE5F6E089E696E024912EBD00000DB425
:101ED00007FEFDCF31968E179F07B1F75C9A81E818
:101EE00080936400809165008160809365000E940A
:101EF000DF0A0E94B60987FF15C05C9885EA8EBD8F
:101F000000000DB407FEFDCF5C9A2E982F982D98F7
:101F10008091640080628093640081E083BF889533
:101F200013BEFCCF0E94B60982FF48C02D980E94C4
:101F3000B60984788438E1F40E94AF0988EC90E017
:101F40000E94B1092F9882E090E00E9471138F3FA8
:101F500029F06FEF82E090E00E94791384EF91E026
:101F60000E94B1092F9A0E94B60984788438D9F367
:101F70000E94B60984718431E1F40E94AF0988ECB3
:101F800090E00E94B1092E9882E090E00E947113C7
:101F9000882329F060E082E090E00E94791384EFCA
:101FA00091E00E94B1092E9A0E94B6098471843191
:101FB000D9F388EC90E00E94B109B4CF0E94AF0938
:101FC00082E090E00E94F30A882309F456C03E9A0A
:101FD0003F9A81E08093E00181E090E00E94F30A63
:101FE000282F2470922E81FF10C021112E98C1EF4E
:101FF000DFEF08E010E0A8E58A2E0E94B60986FF10
:1020000041C02E9A2F9A0E94AF0982E390E00E946D
:10201000B1090E94B6098111F8CF80E180930001D7
:1020200027E0222E312CC9E1D0E038E2432E512C9A
:102030004AE0642E712C80E2E82E86E0F82E95E0CE
:10204000C92ED12C09E310E02FB7F8948091E60156
:102050009091E701A091E801B091E9012FBF209193
:10206000E101222309F4CFC01092E10180E090E069
:10207000892B51F30E940000DECF1092E0013E98C0
:102080003F98AACF992029F0C430D10511F42E9A97
:102090002F9881E00E949C049E01D7FF04C0222754
:1020A00033272C1B3D0B27703327CE01D7FD079616
:1020B000F3E095958795FA95E1F7D7FF05C001976D
:1020C000A801421B530B9A01BC017695762F662717
:1020D000779567956E5E7D4FF12CE12C3801621A81
:1020E000730A8E3F5FEF950709F43DC08E9CD001C7
:1020F0008F9CB00D112450E040E0A455BA4F5B0115
:10210000E0E8AE0EB11C8F3F980791F0FD01E40F9F
:10211000F51FE4916B01C40ED51EF0E02F01022ED5
:1021200001C0440C0A94EAF7F60154884528448A11
:102130002115310599F0FD01E40FF51FE4916501CA
:10214000C40ED51EF0E02F01062C02C05594479412
:102150000A94E2F7F60154884528448A4F5F5F4F9E
:102160004835510581F6019660587F4FEA94EF2873
:1021700009F045C00E94DF0A8FE090E00E94B1099B
:102180002196C931D10509F038CF992011F02F9A45
:102190002D9880E991E00E94B1090E94AF0981E089
:1021A00090E00E94F30A80FF30CF8AE090E00E9426
:1021B000F30A9FEF980F9E3F08F027CF22E330E00D
:1021C0003093ED012093EC0128E330E03093EF01F0
:1021D0002093EE01CBE0D0E0682F82E796E00E94EA
:1021E000750ACE010E94F30A2196C131D105A1F7EB
:1021F0000E94DF0A88EE93E00E94B10906CFEE2428
:10220000E394F12C6ECF3091E201482F431B342F21
:1022100040910001341748F43F5F341708F026CF8F
:1022200081E083BF889513BE21CF31E03093E10177
:102230008093E2018091E4019091E50101969093F1
:10224000E5018093E401E2E1F2E021112FEF0024A7
:1022500021932193219321930394D1F71092EF01BD
:102260001092EE011092ED011092EC018091EB01C1
:102270008093EA010E94B6098093EB018FB7F8942E
:102280008090E6019090E701A090E801B090E9010C
:102290008FBF8091F8019091F901A091FA01B0915E
:1022A000FB01881A990AAA0ABB0A8092F40190924B
:1022B000F501A092F601B092F7018091F2019091A0
:1022C000F301009719F55092ED014092EC01D09383
:1022D000EF01C093EE0180E491E00E94E60A809154
:1022E000F4019091F501A091F601B091F701893BBD
:1022F0009B40A105B10540F18091F2019091F3015D
:1023000001969093F3018093F2011EC081309105F4
:10231000F1F482E090E09093ED018093EC01D09392
:10232000EF01C093EE0188E491E00E94E60A8091FB
:10233000F4019091F501A091F601B091F701813778
:102340009741A105B105C0F60E94DF0A8FCE823009
:10235000910509F097C062ED77E08FE190E00E946F
:10236000AB04A0900501B09006018A2D0E94000ADE
:102370008091E4019091E501B6010E94D713892B69
:1023800059F4F1E0AF1AB1081A141B040CF075C02F
:10239000B0920601A0920501809103019091040181
:1023A000892B09F448C08091F0019091F101892BAB
:1023B00099F466E970E081E99EE00E9493098091BA
:1023C000F0019091F10101969093F1018093F00159
:1023D000F0920201E09201018091F0019091F101EF
:1023E0000197A9F48091E301811111C0809101014D
:1023F00090910201883924E092074CF04E97909317
:102400000201809301016EE170E00E9493098091C6
:10241000010190910201883994406CF41092F1010D
:102420001092F00180910301909104010197909323
:102430000401809303018091F4019091F501A09132
:10244000F601B091F70189329342A105B10508F474
:102450007BCF8091F2019091F30101969093F3016B
:102460008093F201709206016092050187E391E08A
:10247000909302018093010167CF30920601209270
:1024800005018ACF8330910509F048C062ED77E0FD
:102490008FE190E00E94AB04A0900501B09006018E
:1024A0008A2D0E94000A8091E4019091E5016CE080
:1024B00070E00E94D713892B51F4A114B10439F0B4
:1024C00091E0A91AB108B0920601A092050180918D
:1024D000E301811114C080910101909102018C39B6
:1024E00091056CF06EE170E00E949309809101010A
:1024F00090910201029790930201809301018091D3
:10250000F4019091F501A091F601B091F701893F96
:102510009A42A105B10508F417CFEECE843091059B
:10252000C9F566ED76E08BE190E00E94AB04109275
:10253000ED011092EC011093EF010093EE01FCEB22
:102540008F16F4E39F06A104B10420F48DE591E019
:102550000E94E60A8091F4019091F501A091F601A4
:10256000B091F7018D3B9443A105B10520F08FE6B2
:1025700091E00E94E60A8091F4019091F501A0910A
:10258000F601B091F70181389E43A105B10508F429
:10259000DBCEB2CE8530910519F566ED76E08BE1A4
:1025A00090E00E94AB048BE490E09093ED01809367
:1025B000EC011093EF010093EE0185E891E00E9499
:1025C000E60A8091F4019091F501A091F601B09195
:1025D000F70189339A44A105B10508F4B5CE8CCE34
:1025E000069751F569E676E08CE190E00E94AB0435
:1025F0001092ED011092EC011093EF010093EE01A7
:102600008EE891E0F8E08F16F2E59F06A104B10490
:1026100010F085E991E00E94E60A8091F401909122
:10262000F501A091F601B091F701813C9D45A1050E
:10263000B10508F489CE60CE4DE250E05093ED0133
:102640004093EC01D093EF01C093EE018BEA91E04F
:102650000E94E60AD093ED01C093EC015092EF0185
:102660004092EE0180EB91E00E94E60A7092ED014B
:102670006092EC0182E390E09093EF018093EE0191
:102680008CEB91E00E94E60A8091EA0183FD5CCE2A
:102690008091EB0183FF58CE1092F3011092F2016A
:1026A0001092F1011092F001309206012092050182
:1026B000F0920201E0920101D0920401C092030164
:1026C0008091F4019091F501A091F601B091F7018C
:1026D0008093F8019093F901A093FA01B093FB0164
:1026E00033CEF999FECF92BD81BDF89A992780B576
:1026F0000895262FF999FECF1FBA92BD81BD20BD46
:102700000FB6F894FA9AF99A0FBE01960895052E1D
:1027100097FB1EF400940E949E1357FD07D00E9461
:10272000A61307FC03D04EF40C949E1350954095CD
:10273000309521953F4F4F4F5F4F0895909580956D
:10274000709561957F4F8F4F9F4F0895A1E21A2E8C
:10275000AA1BBB1BFD010DC0AA1FBB1FEE1FFF1F45
:10276000A217B307E407F50720F0A21BB30BE40B95
:10277000F50B661F771F881F991F1A9469F76095DC
:102780007095809590959B01AC01BD01CF01089596
:10279000A29FB001B39FC001A39F700D811D1124A2
:1027A000911DB29F700D811D1124911D0895AA1BCA
:1027B000BB1B51E107C0AA1FBB1FA617B70710F02C
:1027C000A61BB70B881F991F5A95A9F7809590955E
:1027D000BC01CD010895EE0FFF1F0590F491E02D8F
:0627E0000994F894FFCFFC
:1027E60010200605000700FFFFFFFF00E1000000C4
:1027F60000000000C18081000000010204081020D2
:10280600408000000000BA065208DB06D006210709
:10281600DF06FD0600000000750ACD07E30AE20A9E
:10282600494E54414E544F004E454C4C4120544164
:102836004E412044454C2054494752450048616E5C
:102846006E6F20667265646461746F20696C006ED9
:102856006F7374726F20756F6D6F20696E20416C97
:1028660061736B61005065636361746F2100456835
:10287600207369210065726120756E206F7474691A
:102886006D6F206167656E7465210046494E45008F
:102896005072656D692041207065720067756172BE
:0E28A60064617265206461206361706F0000E0
:00000001FF
